{
  "contractName": "Og",
  "abi": [
    {
      "inputs": [
        {
          "internalType": "string",
          "name": "fileName",
          "type": "string"
        },
        {
          "internalType": "string",
          "name": "ipfsHash",
          "type": "string"
        }
      ],
      "name": "upload",
      "outputs": [],
      "stateMutability": "nonpayable",
      "type": "function"
    },
    {
      "inputs": [
        {
          "internalType": "string",
          "name": "fileName",
          "type": "string"
        }
      ],
      "name": "getIpfsHash",
      "outputs": [
        {
          "internalType": "string",
          "name": "",
          "type": "string"
        }
      ],
      "stateMutability": "view",
      "type": "function",
      "constant": true
    },
    {
      "inputs": [
        {
          "internalType": "string",
          "name": "ipfsHash",
          "type": "string"
        }
      ],
      "name": "getIpfsHashByHash",
      "outputs": [
        {
          "internalType": "string",
          "name": "",
          "type": "string"
        }
      ],
      "stateMutability": "view",
      "type": "function",
      "constant": true
    },
    {
      "inputs": [
        {
          "internalType": "string",
          "name": "fileName",
          "type": "string"
        }
      ],
      "name": "isFileStored",
      "outputs": [
        {
          "internalType": "bool",
          "name": "",
          "type": "bool"
        }
      ],
      "stateMutability": "view",
      "type": "function",
      "constant": true
    },
    {
      "inputs": [
        {
          "internalType": "string",
          "name": "ipfsHash",
          "type": "string"
        }
      ],
      "name": "isFileStoredByHash",
      "outputs": [
        {
          "internalType": "bool",
          "name": "",
          "type": "bool"
        }
      ],
      "stateMutability": "view",
      "type": "function",
      "constant": true
    }
  ],
  "bytecode": "0x608060405234801561001057600080fd5b50610781806100206000396000f3fe608060405234801561001057600080fd5b50600436106100575760003560e01c8063202e49361461005c5780635f9ea0b114610071578063e0956ad01461009a578063f4d45525146100bd578063fc5a55f1146100d0575b600080fd5b61006f61006a366004610556565b6100e3565b005b61008461007f3660046105ba565b6101fc565b6040516100919190610627565b60405180910390f35b6100ad6100a83660046105ba565b61031d565b6040519015158152602001610091565b6100846100cb3660046105ba565b610356565b6100ad6100de3660046105ba565b6103ee565b6000826040516100f3919061065a565b9081526020016040518091039020600101805461010f90610676565b1590506101595760405162461bcd60e51b815260206004820152601360248201527246696c6520616c72656164792065786973747360681b60448201526064015b60405180910390fd5b60405180604001604052808381526020018281525060008360405161017e919061065a565b908152602001604051809103902060008201518160000190805190602001906101a892919061041a565b5060208281015180516101c1926001850192019061041a565b50905050816001826040516101d6919061065a565b908152602001604051809103902090805190602001906101f792919061041a565b505050565b60606000808360405161020f919061065a565b9081526020016040518091039020600101805461022b90610676565b90501161026c5760405162461bcd60e51b815260206004820152600f60248201526e46696c65206e6f742065786973747360881b6044820152606401610150565b60008260405161027c919061065a565b9081526020016040518091039020600101805461029890610676565b80601f01602080910402602001604051908101604052809291908181526020018280546102c490610676565b80156103115780601f106102e657610100808354040283529160200191610311565b820191906000526020600020905b8154815290600101906020018083116102f457829003601f168201915b50505050509050919050565b600080600083604051610330919061065a565b9081526020016040518091039020600101805461034c90610676565b9050119050919050565b6060600060018360405161036a919061065a565b9081526020016040518091039020805461038390610676565b9050116103c45760405162461bcd60e51b815260206004820152600f60248201526e46696c65206e6f742065786973747360881b6044820152606401610150565b60006001836040516103d6919061065a565b90815260405190819003602001812061027c916106b0565b600080600183604051610401919061065a565b9081526020016040518091039020805461034c90610676565b82805461042690610676565b90600052602060002090601f016020900481019282610448576000855561048e565b82601f1061046157805160ff191683800117855561048e565b8280016001018555821561048e579182015b8281111561048e578251825591602001919060010190610473565b5061049a92915061049e565b5090565b5b8082111561049a576000815560010161049f565b634e487b7160e01b600052604160045260246000fd5b600082601f8301126104da57600080fd5b813567ffffffffffffffff808211156104f5576104f56104b3565b604051601f8301601f19908116603f0116810190828211818310171561051d5761051d6104b3565b8160405283815286602085880101111561053657600080fd5b836020870160208301376000602085830101528094505050505092915050565b6000806040838503121561056957600080fd5b823567ffffffffffffffff8082111561058157600080fd5b61058d868387016104c9565b935060208501359150808211156105a357600080fd5b506105b0858286016104c9565b9150509250929050565b6000602082840312156105cc57600080fd5b813567ffffffffffffffff8111156105e357600080fd5b6105ef848285016104c9565b949350505050565b60005b838110156106125781810151838201526020016105fa565b83811115610621576000848401525b50505050565b60208152600082518060208401526106468160408501602087016105f7565b601f01601f19169190910160400192915050565b6000825161066c8184602087016105f7565b9190910192915050565b600181811c9082168061068a57607f821691505b6020821081036106aa57634e487b7160e01b600052602260045260246000fd5b50919050565b600080835481600182811c9150808316806106cc57607f831692505b602080841082036106eb57634e487b7160e01b86526022600452602486fd5b8180156106ff57600181146107105761073d565b60ff1986168952848901965061073d565b60008a81526020902060005b868110156107355781548b82015290850190830161071c565b505084890196505b50949897505050505050505056fea2646970667358221220ca2abf58c3d5cd97d7685303469003f5401fe97e27b3156a20e23e3949f4ef1064736f6c634300080d0033",
  "immutableReferences": {},
  "source": "pragma solidity ^0.8.0;\r\n\r\ncontract Og {\r\n    struct File {\r\n        string fileName;\r\n        string ipfsHash;\r\n    }\r\n\r\n    mapping (string => File) private files;\r\n    mapping (string => string) private hashToIpfsHash;\r\n\r\n    function upload(string memory fileName, string memory ipfsHash) public {\r\n        require(bytes(files[fileName].ipfsHash).length == 0, \"File already exists\");\r\n        files[fileName] = File(fileName, ipfsHash);\r\n        hashToIpfsHash[ipfsHash] = fileName; // Store the mapping from hash to fileName\r\n    }\r\n\r\n    function getIpfsHash(string memory fileName) public view returns (string memory){\r\n        require(bytes(files[fileName].ipfsHash).length > 0, \"File not exists\");\r\n        return files[fileName].ipfsHash;\r\n    }\r\n\r\n    function getIpfsHashByHash(string memory ipfsHash) public view returns (string memory){\r\n        require(bytes(hashToIpfsHash[ipfsHash]).length > 0, \"File not exists\");\r\n        return files[hashToIpfsHash[ipfsHash]].ipfsHash;\r\n    }\r\n\r\n    function isFileStored(string memory fileName) public view returns (bool) {\r\n        return bytes(files[fileName].ipfsHash).length > 0;\r\n    }\r\n\r\n    function isFileStoredByHash(string memory ipfsHash) public view returns (bool) {\r\n        return bytes(hashToIpfsHash[ipfsHash]).length > 0;\r\n    }\r\n    \r\n}",
  "sourcePath": "C:\\Users\\Umair\\Downloads\\IPFS-Hash-Storage-Blockchain-using-NextJS-main\\contracts\\Og.sol",
  "compiler": {
    "name": "solc",
    "version": "0.8.13+commit.abaa5c0e.Emscripten.clang"
  },
  "schemaVersion": "3.4.16",
  "updatedAt": "2024-01-24T11:07:20.243Z",
  "networkType": "ethereum",
  "devdoc": {
    "kind": "dev",
    "methods": {},
    "version": 1
  },
  "userdoc": {
    "kind": "user",
    "methods": {},
    "version": 1
  }
}