{
  "contractName": "Storage",
  "abi": [
    {
      "inputs": [
        {
          "internalType": "string",
          "name": "fileName",
          "type": "string"
        },
        {
          "internalType": "string",
          "name": "ipfsHash",
          "type": "string"
        }
      ],
      "name": "upload",
      "outputs": [],
      "stateMutability": "nonpayable",
      "type": "function"
    },
    {
      "inputs": [
        {
          "internalType": "string",
          "name": "ipfsHash",
          "type": "string"
        }
      ],
      "name": "getIpfsHash",
      "outputs": [
        {
          "internalType": "string",
          "name": "",
          "type": "string"
        }
      ],
      "stateMutability": "view",
      "type": "function",
      "constant": true
    },
    {
      "inputs": [
        {
          "internalType": "string",
          "name": "ipfsHash",
          "type": "string"
        }
      ],
      "name": "isFileStored",
      "outputs": [
        {
          "internalType": "bool",
          "name": "",
          "type": "bool"
        }
      ],
      "stateMutability": "view",
      "type": "function",
      "constant": true
    }
  ],
  "bytecode": "0x608060405234801561001057600080fd5b506105b2806100206000396000f3fe608060405234801561001057600080fd5b50600436106100415760003560e01c8063202e4936146100465780635f9ea0b11461005b578063e0956ad014610084575b600080fd5b610059610054366004610422565b6100a7565b005b61006e610069366004610486565b61018c565b60405161007b91906104f3565b60405180910390f35b610097610092366004610486565b6102ad565b604051901515815260200161007b565b6000816040516100b79190610526565b908152602001604051809103902060010180546100d390610542565b15905061011d5760405162461bcd60e51b815260206004820152601360248201527246696c6520616c72656164792065786973747360681b60448201526064015b60405180910390fd5b6040518060400160405280838152602001828152506000826040516101429190610526565b9081526020016040518091039020600082015181600001908051906020019061016c9291906102e6565b50602082810151805161018592600185019201906102e6565b5050505050565b60606000808360405161019f9190610526565b908152602001604051809103902060010180546101bb90610542565b9050116101fc5760405162461bcd60e51b815260206004820152600f60248201526e46696c65206e6f742065786973747360881b6044820152606401610114565b60008260405161020c9190610526565b9081526020016040518091039020600101805461022890610542565b80601f016020809104026020016040519081016040528092919081815260200182805461025490610542565b80156102a15780601f10610276576101008083540402835291602001916102a1565b820191906000526020600020905b81548152906001019060200180831161028457829003601f168201915b50505050509050919050565b6000806000836040516102c09190610526565b908152602001604051809103902060010180546102dc90610542565b9050119050919050565b8280546102f290610542565b90600052602060002090601f016020900481019282610314576000855561035a565b82601f1061032d57805160ff191683800117855561035a565b8280016001018555821561035a579182015b8281111561035a57825182559160200191906001019061033f565b5061036692915061036a565b5090565b5b80821115610366576000815560010161036b565b634e487b7160e01b600052604160045260246000fd5b600082601f8301126103a657600080fd5b813567ffffffffffffffff808211156103c1576103c161037f565b604051601f8301601f19908116603f011681019082821181831017156103e9576103e961037f565b8160405283815286602085880101111561040257600080fd5b836020870160208301376000602085830101528094505050505092915050565b6000806040838503121561043557600080fd5b823567ffffffffffffffff8082111561044d57600080fd5b61045986838701610395565b9350602085013591508082111561046f57600080fd5b5061047c85828601610395565b9150509250929050565b60006020828403121561049857600080fd5b813567ffffffffffffffff8111156104af57600080fd5b6104bb84828501610395565b949350505050565b60005b838110156104de5781810151838201526020016104c6565b838111156104ed576000848401525b50505050565b60208152600082518060208401526105128160408501602087016104c3565b601f01601f19169190910160400192915050565b600082516105388184602087016104c3565b9190910192915050565b600181811c9082168061055657607f821691505b60208210810361057657634e487b7160e01b600052602260045260246000fd5b5091905056fea2646970667358221220e1538e0701262d87c31b151eeda0e8702dfcadff5ef6de19e62d871f2896f0d564736f6c634300080d0033",
  "immutableReferences": {},
  "source": "pragma solidity ^0.8.0;\r\n\r\ncontract Storage {\r\n    struct File {\r\n        string fileName;\r\n        string ipfsHash;\r\n    }\r\n\r\n    mapping (string => File) private files;\r\n    // mapping (string => string) private hashToIpfsHash;\r\n\r\n    // function upload(string memory fileName, string memory ipfsHash) public {\r\n    //     require(bytes(files[fileName].ipfsHash).length == 0, \"File already exists\");\r\n    //     files[fileName] = File(fileName, ipfsHash);\r\n    //     hashToIpfsHash[ipfsHash] = fileName; // Store the mapping from hash to fileName\r\n    // }\r\n\r\n    // function getIpfsHash(string memory fileName) public view returns (string memory){\r\n    //     require(bytes(files[fileName].ipfsHash).length > 0, \"File not exists\");\r\n    //     return files[fileName].ipfsHash;\r\n    // }\r\n\r\n    // function getIpfsHashByHash(string memory ipfsHash) public view returns (string memory){\r\n    //     require(bytes(hashToIpfsHash[ipfsHash]).length > 0, \"File not exists\");\r\n    //     return files[hashToIpfsHash[ipfsHash]].ipfsHash;\r\n    // }\r\n\r\n    // function isFileStored(string memory fileName) public view returns (bool) {\r\n    //     return bytes(files[fileName].ipfsHash).length > 0;\r\n    // }\r\n\r\n    // function isFileStoredByHash(string memory ipfsHash) public view returns (bool) {\r\n    //     return bytes(hashToIpfsHash[ipfsHash]).length > 0;\r\n    // }\r\n    function upload(string memory fileName, string memory ipfsHash) public {\r\n        require(bytes(files[ipfsHash].ipfsHash).length == 0, \"File already exists\");\r\n        files[ipfsHash] = File(fileName, ipfsHash);\r\n    }\r\n\r\n    function getIpfsHash(string memory ipfsHash) public view returns (string memory){\r\n        require(bytes(files[ipfsHash].ipfsHash).length > 0, \"File not exists\");\r\n        return files[ipfsHash].ipfsHash;\r\n    }\r\n    // function getIpfsHashByHash(string memory hash) public view returns (string memory){\r\n    //     require(bytes(files[hash].ipfsHash).length > 0, \"File not exists\");\r\n    //     return files[hash].ipfsHash;\r\n    // } \r\n\r\n    function isFileStored(string memory ipfsHash) public view returns (bool) {\r\n        return bytes(files[ipfsHash].ipfsHash).length > 0;\r\n    }\r\n    // function isFileStoredByHash(string memory hash) public view returns (bool) {\r\n    //     return bytes(files[hash].ipfsHash).length > 0;\r\n    // }\r\n}",
  "sourcePath": "C:\\Users\\Umair\\Downloads\\IPFS-Hash-Storage-Blockchain-using-NextJS-main\\contracts\\Storage.sol",
  "compiler": {
    "name": "solc",
    "version": "0.8.13+commit.abaa5c0e.Emscripten.clang"
  },
  "schemaVersion": "3.4.16",
  "updatedAt": "2024-01-24T11:07:19.737Z",
  "networkType": "ethereum",
  "devdoc": {
    "kind": "dev",
    "methods": {},
    "version": 1
  },
  "userdoc": {
    "kind": "user",
    "methods": {},
    "version": 1
  }
}